:1000000000308A00BC2B0000F701F801F901FA0169
:10001000D101D201D301D40150084F044E044D0444
:10002000031942282030D5000310C90DCA0DCB0D8D
:10003000CC0DD10DD20DD30DD40D50085402031D9B
:100040002B284F085302031D2B284E085202031D74
:100050002B284D085102031C3C284D08D1024E08A4
:10006000031C4E0FD2024F08031C4F0FD30250083F
:10007000031C500FD4020314F70DF80DF90DFA0DFF
:10008000D50B142851308400831300340408C100B8
:10009000C01F5728C103C116BD09BE09BF09C00949
:1000A000BD0A0319BE0A0319BF0A0319C00A3B306F
:1000B000C8009A30C700CA30C600C5010A30C30064
:1000C0004008CC003F08CB003E08CA003D08C900EC
:1000D0004808D0004708CF004608CE004508CD00AC
:1000E00004200008BD00840A0008BE00840A00083D
:1000F000BF00840A0008C000F708031D92284308C7
:10010000013A031992284108031994280F39430230
:1001100003198C280318B328C11BB328411B94284A
:100120002030AE282030C105C11EA028C11277089A
:10013000C1002D300C1E9A2899004108F700C1011A
:100140003030C11EAE28C1127708C1002D300C1E00
:10015000A72899004108F700C1013030F707770858
:100160000C1EB02899004808CC004708CB00460870
:10017000CA004508C900D001CF01CE010A30CD0028
:1001800004207A08C8007908C7007808C6007708F4
:10019000C500C30B602800348C1EEA288C1ECE28B4
:1001A0001A08B0003008533C031DE9282308A700B3
:1001B0002208A6002108A5002008A40041308400E0
:1001C0002308C0002208BF002108BE002008BD008F
:1001D00046200D2920082402031DFA2821082502A3
:1001E000031DFA2822082602031DFA2823082702E5
:1001F00003190D292308A7002208A6002108A5003D
:100200002008A400413084002308C0002208BF0059
:100210002108BE002008BD0046208A110A12252CA4
:10022000400844068039CA00C01F2129BD09BE0903
:10023000BF09C009BD0A0319BE0A0319BF0A031981
:10024000C00AC41F2E29C109C209C309C409C10AB1
:100250000319C20A0319C30A0319C40AF701F801F2
:10026000F901FA01C501C601C701C80144084304E8
:100270004204410403196C292030C9000310BD0D4C
:10028000BE0DBF0DC00DC50DC60DC70DC80D440870
:100290004802031D552943084702031D55294208FA
:1002A0004602031D552941084502031C66294108E1
:1002B000C5024208031C420FC6024308031C430F39
:1002C000C7024408031C440FC8020314F70DF80DBD
:1002D000F90DFA0DC90B3E29CA1F7929F709F8094A
:1002E000F909FA09F70A0319F80A0319F90A0319AF
:1002F000FA0A45308400831300349F149F187E2926
:100300001E08FA0083161E08F7007A08F800F901A3
:10031000FA017A088312A3007908A2007808A100E4
:100320007708A0002308C0002208BF002108BE00F3
:100330002008BD00B630F700FA01F901F8014110BC
:10034000C01FB0294114BD09BE09BF09C009BD0ABB
:10035000031DB029BE0A031DB029BF0A0319C00A34
:100360003D083E043F044004031DB829F701C72996
:100370000310F81BC429BD0DBE0DBF0DC00DFA0D35
:10038000F90DF80DF70BB829F8134118F8177A088A
:10039000C0007908BF007808BE007708BD00AA3009
:1003A000C400F130C3000230C2008030C1003D08FB
:1003B00003199C2AC900410803199C2AC902031C7D
:1003C000E6297F30C90703189C2AEC298130C9022D
:1003D000031C9C2A03199C2A4908F700F801F9011B
:1003E000FA01C8013E08C700C7173F08C600400809
:1003F000C5001930C9004408C50203180F2A01308E
:10040000C60203180F2AC70203180F2AC8020318CE
:100410000F2AC80AC70AC60A4408C507412A430862
:10042000C60203182A2A0130C70203182A2AC80262
:1004300003182A2AC80AC70A4308C6074408C5077A
:10044000031C412AC60A031D412AC70A031D412A6B
:10045000C80A412A42088038C7020318402A0130DE
:10046000C8020318402AC80A42088038C707430850
:10047000C607031C1E2AC70A031D1E2AC80A1E2AF5
:100480007A14C90B442A4F2A0310C50DC60DC70D97
:10049000C80D0310FA0DF90DF80DCA0DFB294A1C01
:1004A000572A0310F80CF90CFA0CCA0C5A2AF70355
:1004B00003199C2ACA1B832A0310C50DC60DC70D3C
:1004C000C80D4408C50203186F2A0130C60203187C
:1004D0006F2AC70203186F2AC802031C922A430816
:1004E000C60203187A2A0130C70203187A2AC80202
:1004F000031C922A42088038C7020318832A01305D
:10050000C802031C922AFA0A031D922AF90A031D43
:10051000922AF80A031D922AF70A03199C2AF80C5A
:10052000F90CFA0C3E08C9004208C906C91F9A2AEC
:10053000F817A02AF813A02AF701F801F901FA0127
:100540007A08C0007908BF007808BE007708BD00AF
:100550003D08B63CBD00FA013E08C100BE170310BD
:10056000BE0CBF0CC00CFA0CF90CF80CF70CBD0B50
:10057000AF2AC11FC62AF709F809F909FA09F70ACB
:100580000319F80A0319F90A0319FA0A7A08A300E9
:100590007908A2007808A1007708A0002308C0000D
:1005A0002208BF002108BE002008BD00C401C3010D
:1005B000C2010A30C10010217A08C0007908BF00CA
:1005C0007808BE007708BD003130770784008313B8
:1005D000781883170008F700F801F901FA017A0882
:1005E000AB007908AA007808A9007708A8002808B5
:1005F000C03C031D092BA908031D092BAA08031DD4
:10060000092BAB08031D092BAB01AA01A901FF307F
:10061000A8000130AC070318AD0A0319AE0A03198C
:10062000AF0A0A30BD003D3084008313000803196F
:10063000262B0230F800F701F70B1C2BF80B1B2BB5
:100640009730F700F70B222B800B192BAF1B352BA4
:10065000AF08031D612BAE08031D612BAD08031D00
:10066000612B2C08323C031C612B831688018312FA
:10067000280888002308C0002208BF002108BE0007
:100680002008BD00C401C301C2010A30C10010210D
:100690000008BD00840A0008BE00840A0008BF00EC
:1006A000840A0008C00031303D07840083133E18DF
:1006B00083170008C1008316860183124108860053
:1006C000B92BAF1B702BAF08031DB52BAE08031D54
:1006D000B52BAD08031DB52B2C083B3C031CB52BDB
:1006E000A31B7F2BA308031DAB2BA208031DAB2B61
:1006F000A108031DAB2B2008223C031CAB2B831647
:1007000088018312280888002308C0002208BF003F
:100710002108BE002008BD00C401C301C2010A3087
:10072000C10010210008BD00840A0008BE00840A30
:100730000008BF00840A0008C00031303D07840073
:1007400083133E1883170008C100831686018312A5
:1007500041088600B42B83168801FF30831288007D
:100760008316860183128600B92BAF01AE01AD015D
:10077000AC018A110A12262C840183131F308305D1
:10078000713083168F000F0803178715403003134D
:10079000990003309A00A630980090308312980098
:1007A000831603170908C039890003131F129F120B
:1007B0000030031788008312870188018901C03047
:1007C0000313B100F930B200A430B300B030B4006C
:1007D0009930B5009230B6008230B700F830B800DA
:1007E0008030B9009030BA00FF30BB00BC00FF3051
:1007F0008316850000308600803087008312BC009D
:1008000000308316880083121F139F1783169F17CB
:1008100083121F14831603170908C03989000313B4
:100820001F129F12103003178800F8008312031361
:100830001F08C33978049F00AF01AE01AD01AC01C0
:100840008316891083128914CC287D29A31B352C8B
:10085000A308031D3A2CA208031D3A2CA108031D6E
:100860003A2C2008363C031C3A2C8316891083123C
:1008700089143E2C8316891083128910242C63005E
:04400E00E42FFF3F5D
:00000001FF
;PIC16F887
